{
    "contractName": "LockUSDT",
    "abi": [
        {
            "inputs": [
                {
                    "internalType": "address",
                    "name": "_usdtAddress",
                    "type": "address"
                }
            ],
            "stateMutability": "nonpayable",
            "type": "constructor"
        },
        {
            "inputs": [
                {
                    "internalType": "uint256",
                    "name": "_amount",
                    "type": "uint256"
                }
            ],
            "name": "deposit",
            "outputs": [],
            "stateMutability": "nonpayable",
            "type": "function"
        },
        {
            "inputs": [],
            "name": "withdraw",
            "outputs": [],
            "stateMutability": "nonpayable",
            "type": "function"
        }
    ],
    "bytecode": "608034606f57601f61023938819003918201601f19168301916001600160401b03831184841017607357808492602094604052833981010312606f57516001600160a01b03811690819003606f575f80546001600160a01b0319169190911790556040516101b190816100888239f35b5f80fd5b634e487b7160e01b5f52604160045260245ffdfe6080806040526004361015610012575f80fd5b5f3560e01c80633ccfd60b146101335763b6b55f2514610030575f80fd5b346100e75760203660031901126100e75760043560018060a01b035f541691636eb1769f60e11b8152336004820152306024820152602081604481865afa80156100f35782915f916100fe575b50106100e7575f91606460209260405194859384926323b872dd60e01b845233600485015230602485015260448401525af180156100f3576100bb57005b6020813d6020116100eb575b816100d460209383610145565b810103126100e75751801515036100e757005b5f80fd5b3d91506100c7565b6040513d5f823e3d90fd5b9150506020813d60201161012b575b8161011a60209383610145565b810103126100e7578190515f61007d565b3d915061010d565b346100e7575f3660031901126100e757005b90601f8019910116810190811067ffffffffffffffff82111761016757604052565b634e487b7160e01b5f52604160045260245ffdfea26469706673582212202103c6eb541f4a69d8a870b46574ea6ebe1d9e839168295118539b7fcfd51c2864736f6c634300081e0033",
    "sourcePath": "c:/Users/Sarfaraj/OneDrive/Desktop/web3/web3/foundry_2/src/LockUSDT.sol",
    "compiler": {
        "name": "solc",
        "version": "0.8.30+commit.73712a01"
    },
    "functionHashes": {
        "deposit(uint256)": "b6b55f25",
        "withdraw()": "3ccfd60b"
    },
    "gasEstimates": {
        "creation": {
            "codeDepositCost": "86600",
            "executionCost": "infinite",
            "totalCost": "infinite"
        },
        "external": {
            "deposit(uint256)": "infinite",
            "withdraw()": "130"
        }
    }
}